S0110000506C616E74696C6C612E7372656372
S11300000C9444000C9461000C9461000C94610005
S11300100C9461000C9461000C9461000C946100D8
S11300200C9461000C9461000C9461000C946100C8
S11300300C9461000C9461000C9461000C946100B8
S11300400C9461000C9461000C94C0000C94610049
S11300500C9461000C9439010C9461000C946100BF
S11300600C9461000C94610053025A02610268020C
S11300706F0276027D0284029502A002AE02BC02E7
S1130080CA02D802E602EF0211241FBECFEFD8E065
S1130090DEBFCDBF11E0A0E0B1E0E4EAF7E002C0CA
S11300A005900D92A439B107D9F721E0A4E9B1E094
S11300B001C01D92AC39B207E1F70E94B9000C945B
S11300C0D0030C94000060E082E00E94BD0161E076
S11300D082E00E94BD0161E081E00E94BD0128E050
S11300E041E060E875E280E090E00E940B0386E066
S11300F00E948B020895AC0110929B010BC0909159
S1130100C00095FFFCCF2093C60090919B019F5F98
S113011090939B0190919B01FA01E90FF11D2081BD
S11301202111EDCF08959091C00095FFFCCF8093ED
S1130130C600089580E091E00E947B008AE00E945E
S113014093008DE00E94930086E191E00E947B0081
S11301508AE00E9493008DE00E9493008DE291E07A
S11301600E947B008AE00E9493008DE00E9493002D
S11301700895F8940E94630078940E949A00FFCF37
S11301801F920F920FB60F9211242F933F934F9308
S11301905F936F937F938F939F93AF93BF93EF93EB
S11301A0FF9380919801882319F08230A1F150C007
S11301B08091C60080939A0180919A01813319F04D
S11301C0823371F01BC081E08093980182E491E056
S11301D00E947B00EAE7F0E080818064808338C07D
S11301E081E691E00E947B008AE00E9493008DE00A
S11301F00E94930082E0809398012AC086E791E0F0
S11302000E947B008AE00E9493008DE00E9493008C
S11302100E949A001DC08091C6008093990180912C
S113022099010E9493008AE00E9493008DE00E944D
S113023093000E949A0010929801809199018F7303
S113024085B980919901829586958695837088B940
S1130250FF91EF91BF91AF919F918F917F916F919A
S11302605F914F913F912F910F900FBE0F901F9070
S113027018951F920F920FB60F9211242F933F934C
S11302804F935F936F937F938F939F93AF93BF939A
S1130290EF93FF9380917900809397018091970168
S11302A099E2899F812D112482958F708093960104
S11302B0809197012091960190E034E6239F801964
S11302C0910911246AE070E00E94A20360939501F1
S11302D0209197013091960180919501880F982F74
S11302E0990F990F890F94E6399F800D1124281BCB
S11302F020939401E0919601F0E0E757FE4F80814E
S11303000E949300E0919501F0E0E757FE4F808151
S11303100E949300E0919401F0E0E757FE4F808142
S11303200E9493008AE00E9493008DE00E94930053
S11303300E949A0010929801809197018F7385B959
S113034080919701829586958695837088B9EAE7AE
S1130350F0E0808180618083FF91EF91BF91AF9144
S11303609F918F917F916F915F914F913F912F91C9
S11303700F900FBE0F901F901895813099F4623042
S113038049F0633059F0613009F0C4C08FEF84B98B
S113039015B808958FEF87B918B808958FEF8AB903
S11303A01BB808958130C1F56230D1F028F466237A
S11303B049F0613071F00895643001F1C0F06530A6
S11303C021F1089584B1816084B985B18E7F85B9A6
S11303D0089584B1826084B985B18D7F85B908950B
S11303E084B1846084B985B18B7F85B9089584B163
S11303F0886084B985B1877F85B9089584B18061A7
S113040084B985B18F7E85B9089584B1806284B939
S113041085B18F7D85B908958230C1F56230D1F000
S113042028F4662349F0613071F00895643001F1D5
S1130430C0F0653021F1089587B1816087B988B132
S11304408E7F88B9089587B1826087B988B18D7F1E
S113045088B9089587B1846087B988B18B7F88B9DA
S1130460089587B1886087B988B1877F88B908956E
S113047087B1806187B988B18F7E88B9089587B1C3
S1130480806287B988B18F7D88B90895833009F077
S113049041C0862F90E088309105E0F5FC01EC5CCA
S11304A0FF4F0C94B6038AB181608AB98BB18E7FF9
S11304B08BB908958AB182608AB98BB18D7F8BB96B
S11304C008958AB184608AB98BB18B7F8BB9089502
S11304D08AB188608AB98BB1877F8BB908958AB154
S11304E080618AB98BB18F7E8BB908958AB180629D
S11304F08AB98BB18F7D8BB908958AB180648AB92A
S11305008BB18F7B8BB908958AB180688AB98BB11E
S11305108F778BB9089590E08830910508F067C013
S1130520FC01E45CFF4F0C94B603EEE7F0E080813D
S113053081608083ECE7F0E08081887F808357C00E
S1130540ECE7F0E08081887F808380818160808314
S1130550EEE7F0E080818260808349C0ECE7F0E060
S11305608081887F8083808182608083EEE7F0E0F1
S11305708081846080833BC0ECE7F0E08081887FE9
S11305808083808183608083EEE7F0E080818860EF
S113059080832DC0ECE7F0E08081887F80838081B8
S11305A084608083EEE7F0E08081806180831FC0F7
S11305B0ECE7F0E08081887F8083808185608083A0
S11305C0EEE7F0E080818062808311C0ECE7F0E028
S11305D08081887F808380818660808308C0ECE787
S11305E0F0E08081887F8083808187608083ECE76E
S11305F0F0E0808180628083808180648083EAE788
S1130600F0E080818860808380818760808380813E
S1130610806880830895DC01E1ECF0E090819869C2
S11306209083109719F0119799F163C0603C82E1AF
S11306307807A1F020F46036794049F023C060388F
S113064085E2780791F060347843B1F01BC080EA0A
S113065091E09093C5008093C40014C08FEC90E0A7
S11306609093C5008093C4000DC087E690E09093FA
S1130670C5008093C40006C084E490E09093C50054
S11306808093C400E0ECF0E080818D7F808331C0F2
S1130690603C82E17807A1F020F46036794049F0AB
S11306A023C0603885E2780791F060347843B1F074
S11306B01BC080E493E09093C5008093C40014C0F1
S11306C080EA91E09093C5008093C4000DC08FEC44
S11306D090E09093C5008093C40006C08AE890E03F
S11306E09093C5008093C400E0ECF0E080818260C8
S11306F08083423029F0433049F0413091F40CC0FA
S1130700E2ECF0E08081806280830BC0E2ECF0E0F8
S113071080818063808305C0E2ECF0E080818F7C7F
S11307208083273019F0283039F00895E2ECF0E0A6
S11307308081846080830895E2ECF0E080818660AB
S11307408083089597FB072E16F4009407D077FD55
S113075009D00E94BC0307FC05D03EF49095819516
S11307609F4F0895709561957F4F0895EE0FFF1F79
S11307700590F491E02D0994AA1BBB1B51E107C01D
S1130780AA1FBB1FA617B70710F0A61BB70B881F1D
S1130790991F5A95A9F780959095BC01CD010895AC
S10707A0F894FFCFF7
S11307A453656C656363696F6E6520756E61206162
S11307B46363696F6E005B315D204C656572205024
S11307C46F74656E63696F6D6574726F005B325D1F
S11307D4204D6F7374726172204361726163746536
S11307E47200456C2076616C6F722064656C2070B5
S11307F46F74656E63696F6D6574726F20657320C1
S113080400496E677265736520756E206361726159
S113081463746572200056616C6F72206E6F2041A0
S1130824646D697469626C65003031323334353611
S10708343738390014
S9030000FC
